:1000000045C000004BC0000049C0000047C00000D0
:1000100045C0000043C0000041C000003FC00000D8
:100020003DC000003BC0000039C0000037C00000E8
:1000300035C0000033C0000031C000002FC00000F8
:100040002DC000002BC0000029C0000027C0000008
:1000500025C0000023C0000021C000001FC0000018
:100060001DC000001BC0000019C0000017C0000028
:1000700015C0000013C0000011C000000FC0000038
:100080000DC000000BC0000009C0000011241FBEFD
:10009000CFEFD0E1DEBFCDBF41D044C0B1CFAB9AEE
:1000A00089EF90E00197F1F700C00000AB9889EF6D
:1000B00090E00197F1F700C000000895CF938FEF13
:1000C00084BB15BAC0E2C5BBEADFC5BBE8DF80E888
:1000D00085BBE5DF15BAE3DF80EF85BBE0DF15BA4E
:1000E000DEDF80E685BBDBDFCF91089511BA85E0C6
:1000F00085BD8FEF87BB9DEC84B5899F812D112431
:1001000086958695869588BB2FEF39E688E1215044
:1001100030408040E1F700C00000EECF8FEF81BBA0
:08012000CDDFE4DFF894FFCF0E
:00000001FF
