:1000000045C0000058C0000056C0000054C00000A9
:1000100052C0000050C000004EC000004CC00000A4
:100020004AC0000048C0000046C0000044C00000B4
:1000300042C0000040C000003EC000003CC00000C4
:100040003AC0000038C0000036C0000034C00000D4
:1000500032C0000030C000002EC000002CC00000E4
:100060002AC0000028C0000026C0000024C00000F4
:1000700022C0000020C000001EC000001CC0000004
:100080001AC0000018C0000016C0000011241FBED6
:10009000CFEFD0E1DEBFCDBF11E0A0E0B1E0ECEAF0
:1000A000F1E000E00BBF02C007900D92AA30B1074B
:1000B000D9F76FD079C0A4CF982F907F95BB95B317
:1000C0009C6095BBE9EFF0E03197F1F700C00000CC
:1000D00094E095BBF0E18F02C001112485BB85B38C
:1000E0008C6085BB89EF90E00197F1F700C00000BC
:1000F00015BA0895982F907F95BBAB9AE9EFF0E081
:100100003197F1F700C0000094E095BBF0E18F9FBC
:10011000C001112485BBAB9A89EF90E00197F1F7FC
:1001200000C0000015BA08958FEF84BB82E0E2DFC3
:1001300088E2E0DF8CE0DEDF86E0DCDF80E8DACF3B
:100140000895EF92FF920F931F93CF93DF938C014B
:10015000672B19F480E8CEDF02C080ECCBDF78019A
:10016000C0E0D0E005C0F70181917F01A5DF2196B5
:10017000F80101900020E9F73197E01BF10BCE1751
:10018000DF0788F3DF91CF911F910F91FF90EF90E0
:1001900008958FEF81BBC8DF60E070E080E091E000
:0C01A000D0DF80E090E00895F894FFCFDD
:0A01AC00484F492D4C41525300000A
:00000001FF
